{
    "abi": [
        {
            "type": "constructor",
            "inputs": [
                {
                    "name": "_bridgeAddress",
                    "type": "address",
                    "internalType": "address"
                },
                {
                    "name": "_vaultAddress",
                    "type": "address",
                    "internalType": "address"
                },
                {
                    "name": "_wethAddress",
                    "type": "address",
                    "internalType": "address"
                }
            ],
            "stateMutability": "nonpayable"
        },
        {
            "type": "receive",
            "stateMutability": "payable"
        },
        {
            "type": "function",
            "name": "ADMIN_ADDRESS",
            "inputs": [],
            "outputs": [
                {
                    "name": "",
                    "type": "address",
                    "internalType": "address"
                }
            ],
            "stateMutability": "view"
        },
        {
            "type": "function",
            "name": "BRIDGE_ADDRESS",
            "inputs": [],
            "outputs": [
                {
                    "name": "",
                    "type": "address",
                    "internalType": "address"
                }
            ],
            "stateMutability": "view"
        },
        {
            "type": "function",
            "name": "VAULT_ADDRESS",
            "inputs": [],
            "outputs": [
                {
                    "name": "",
                    "type": "address",
                    "internalType": "address"
                }
            ],
            "stateMutability": "view"
        },
        {
            "type": "function",
            "name": "WETH_ADDRESS",
            "inputs": [],
            "outputs": [
                {
                    "name": "",
                    "type": "address",
                    "internalType": "address"
                }
            ],
            "stateMutability": "view"
        },
        {
            "type": "function",
            "name": "balances",
            "inputs": [
                {
                    "name": "",
                    "type": "address",
                    "internalType": "address"
                }
            ],
            "outputs": [
                {
                    "name": "",
                    "type": "uint256",
                    "internalType": "uint256"
                }
            ],
            "stateMutability": "view"
        },
        {
            "type": "function",
            "name": "checkBalance",
            "inputs": [
                {
                    "name": "user",
                    "type": "address",
                    "internalType": "address"
                }
            ],
            "outputs": [
                {
                    "name": "",
                    "type": "uint256",
                    "internalType": "uint256"
                }
            ],
            "stateMutability": "view"
        },
        {
            "type": "function",
            "name": "executeToVault",
            "inputs": [
                {
                    "name": "amount",
                    "type": "uint256",
                    "internalType": "uint256"
                },
                {
                    "name": "user",
                    "type": "address",
                    "internalType": "address"
                }
            ],
            "outputs": [],
            "stateMutability": "nonpayable"
        },
        {
            "type": "function",
            "name": "getContractBalances",
            "inputs": [],
            "outputs": [
                {
                    "name": "ethBalance",
                    "type": "uint256",
                    "internalType": "uint256"
                },
                {
                    "name": "wethBalance",
                    "type": "uint256",
                    "internalType": "uint256"
                }
            ],
            "stateMutability": "view"
        },
        {
            "type": "function",
            "name": "requestWithdraw",
            "inputs": [
                {
                    "name": "user",
                    "type": "address",
                    "internalType": "address"
                },
                {
                    "name": "amount",
                    "type": "uint256",
                    "internalType": "uint256"
                },
                {
                    "name": "destinationNetwork",
                    "type": "uint32",
                    "internalType": "uint32"
                },
                {
                    "name": "destinationAddress",
                    "type": "address",
                    "internalType": "address"
                },
                {
                    "name": "token",
                    "type": "address",
                    "internalType": "address"
                },
                {
                    "name": "forceUpdateGlobalExitRoot",
                    "type": "bool",
                    "internalType": "bool"
                },
                {
                    "name": "permitData",
                    "type": "bytes",
                    "internalType": "bytes"
                }
            ],
            "outputs": [],
            "stateMutability": "nonpayable"
        },
        {
            "type": "function",
            "name": "setAdmin",
            "inputs": [
                {
                    "name": "_adminAddress",
                    "type": "address",
                    "internalType": "address"
                }
            ],
            "outputs": [],
            "stateMutability": "nonpayable"
        },
        {
            "type": "function",
            "name": "setVaultAddress",
            "inputs": [
                {
                    "name": "_vaultAddress",
                    "type": "address",
                    "internalType": "address"
                }
            ],
            "outputs": [],
            "stateMutability": "nonpayable"
        },
        {
            "type": "function",
            "name": "setWethAddress",
            "inputs": [
                {
                    "name": "_wethAddress",
                    "type": "address",
                    "internalType": "address"
                }
            ],
            "outputs": [],
            "stateMutability": "nonpayable"
        },
        {
            "type": "function",
            "name": "wrapEthToWeth",
            "inputs": [],
            "outputs": [],
            "stateMutability": "nonpayable"
        },
        {
            "type": "event",
            "name": "Deposited",
            "inputs": [
                {
                    "name": "user",
                    "type": "address",
                    "indexed": true,
                    "internalType": "address"
                },
                {
                    "name": "amount",
                    "type": "uint256",
                    "indexed": false,
                    "internalType": "uint256"
                },
                {
                    "name": "nonce",
                    "type": "uint256",
                    "indexed": false,
                    "internalType": "uint256"
                },
                {
                    "name": "timestamp",
                    "type": "uint256",
                    "indexed": false,
                    "internalType": "uint256"
                }
            ],
            "anonymous": false
        },
        {
            "type": "event",
            "name": "ExecutedToVault",
            "inputs": [
                {
                    "name": "user",
                    "type": "address",
                    "indexed": true,
                    "internalType": "address"
                },
                {
                    "name": "amount",
                    "type": "uint256",
                    "indexed": false,
                    "internalType": "uint256"
                },
                {
                    "name": "nonce",
                    "type": "uint256",
                    "indexed": false,
                    "internalType": "uint256"
                },
                {
                    "name": "timestamp",
                    "type": "uint256",
                    "indexed": false,
                    "internalType": "uint256"
                }
            ],
            "anonymous": false
        },
        {
            "type": "event",
            "name": "RequestWithdraw",
            "inputs": [
                {
                    "name": "user",
                    "type": "address",
                    "indexed": true,
                    "internalType": "address"
                },
                {
                    "name": "amount",
                    "type": "uint256",
                    "indexed": false,
                    "internalType": "uint256"
                },
                {
                    "name": "nonce",
                    "type": "uint256",
                    "indexed": false,
                    "internalType": "uint256"
                },
                {
                    "name": "timestamp",
                    "type": "uint256",
                    "indexed": false,
                    "internalType": "uint256"
                }
            ],
            "anonymous": false
        },
        {
            "type": "error",
            "name": "InsufficientBalance",
            "inputs": []
        },
        {
            "type": "error",
            "name": "NotAdmin",
            "inputs": []
        }
    ],
    "bytecode": {
        "object": "0x608060405234801561000f575f5ffd5b506040516116b13803806116b183398181016040528101906100319190610197565b8260015f6101000a81548173ffffffffffffffffffffffffffffffffffffffff021916908373ffffffffffffffffffffffffffffffffffffffff1602179055508160025f6101000a81548173ffffffffffffffffffffffffffffffffffffffff021916908373ffffffffffffffffffffffffffffffffffffffff1602179055508060035f6101000a81548173ffffffffffffffffffffffffffffffffffffffff021916908373ffffffffffffffffffffffffffffffffffffffff1602179055503360045f6101000a81548173ffffffffffffffffffffffffffffffffffffffff021916908373ffffffffffffffffffffffffffffffffffffffff1602179055505050506101e7565b5f5ffd5b5f73ffffffffffffffffffffffffffffffffffffffff82169050919050565b5f6101668261013d565b9050919050565b6101768161015c565b8114610180575f5ffd5b50565b5f815190506101918161016d565b92915050565b5f5f5f606084860312156101ae576101ad610139565b5b5f6101bb86828701610183565b93505060206101cc86828701610183565b92505060406101dd86828701610183565b9150509250925092565b6114bd806101f45f395ff3fe6080604052600436106100c5575f3560e01c80639092c31c1161007e578063cf7fdc9d11610058578063cf7fdc9d14610264578063d0e1be781461028e578063f57ad989146102a4578063ffd2a7d3146102ce576100cc565b80639092c31c146101ea578063a96e242314610214578063b76377651461023c576100cc565b806301ee4662146100d0578063040141e5146100f857806327e235e3146101225780635f5152261461015e578063704b6c021461019a57806385535cc5146101c2576100cc565b366100cc57005b5f5ffd5b3480156100db575f5ffd5b506100f660048036038101906100f19190610fff565b6102f9565b005b348015610103575f5ffd5b5061010c61055c565b60405161011991906110c7565b60405180910390f35b34801561012d575f5ffd5b50610148600480360381019061014391906110e0565b610581565b604051610155919061111a565b60405180910390f35b348015610169575f5ffd5b50610184600480360381019061017f91906110e0565b610595565b604051610191919061111a565b60405180910390f35b3480156101a5575f5ffd5b506101c060048036038101906101bb91906110e0565b6105da565b005b3480156101cd575f5ffd5b506101e860048036038101906101e391906110e0565b6106a3565b005b3480156101f5575f5ffd5b506101fe61076c565b60405161020b91906110c7565b60405180910390f35b34801561021f575f5ffd5b5061023a600480360381019061023591906110e0565b610791565b005b348015610247575f5ffd5b50610262600480360381019061025d9190611133565b61085a565b005b34801561026f575f5ffd5b50610278610bb5565b60405161028591906110c7565b60405180910390f35b348015610299575f5ffd5b506102a2610bda565b005b3480156102af575f5ffd5b506102b8610cee565b6040516102c591906110c7565b60405180910390f35b3480156102d9575f5ffd5b506102e2610d13565b6040516102f0929190611171565b60405180910390f35b60045f9054906101000a900473ffffffffffffffffffffffffffffffffffffffff1673ffffffffffffffffffffffffffffffffffffffff163373ffffffffffffffffffffffffffffffffffffffff161461037f576040517f7bfa4b9f00000000000000000000000000000000000000000000000000000000815260040160405180910390fd5b60025f9054906101000a900473ffffffffffffffffffffffffffffffffffffffff1673ffffffffffffffffffffffffffffffffffffffff1663b460af948730306040518463ffffffff1660e01b81526004016103dd93929190611198565b6020604051808303815f875af11580156103f9573d5f5f3e3d5ffd5b505050506040513d601f19601f8201168201806040525081019061041d91906111e1565b5060015f9054906101000a900473ffffffffffffffffffffffffffffffffffffffff1673ffffffffffffffffffffffffffffffffffffffff1663cd5865798686898787876040518763ffffffff1660e01b81526004016104829695949392919061128a565b5f604051808303815f87803b158015610499575f5ffd5b505af11580156104ab573d5f5f3e3d5ffd5b50505050855f5f8973ffffffffffffffffffffffffffffffffffffffff1673ffffffffffffffffffffffffffffffffffffffff1681526020019081526020015f205f8282546104fa919061131d565b925050819055508673ffffffffffffffffffffffffffffffffffffffff167f96d07fd2bc9180dce2d22cb77edc26050eeb85876cff9714d58346b2974a8665875f4260405161054b93929190611392565b60405180910390a250505050505050565b60035f9054906101000a900473ffffffffffffffffffffffffffffffffffffffff1681565b5f602052805f5260405f205f915090505481565b5f5f5f8373ffffffffffffffffffffffffffffffffffffffff1673ffffffffffffffffffffffffffffffffffffffff1681526020019081526020015f20549050919050565b60045f9054906101000a900473ffffffffffffffffffffffffffffffffffffffff1673ffffffffffffffffffffffffffffffffffffffff163373ffffffffffffffffffffffffffffffffffffffff1614610660576040517f7bfa4b9f00000000000000000000000000000000000000000000000000000000815260040160405180910390fd5b8060045f6101000a81548173ffffffffffffffffffffffffffffffffffffffff021916908373ffffffffffffffffffffffffffffffffffffffff16021790555050565b60045f9054906101000a900473ffffffffffffffffffffffffffffffffffffffff1673ffffffffffffffffffffffffffffffffffffffff163373ffffffffffffffffffffffffffffffffffffffff1614610729576040517f7bfa4b9f00000000000000000000000000000000000000000000000000000000815260040160405180910390fd5b8060025f6101000a81548173ffffffffffffffffffffffffffffffffffffffff021916908373ffffffffffffffffffffffffffffffffffffffff16021790555050565b60025f9054906101000a900473ffffffffffffffffffffffffffffffffffffffff1681565b60045f9054906101000a900473ffffffffffffffffffffffffffffffffffffffff1673ffffffffffffffffffffffffffffffffffffffff163373ffffffffffffffffffffffffffffffffffffffff1614610817576040517f7bfa4b9f00000000000000000000000000000000000000000000000000000000815260040160405180910390fd5b8060035f6101000a81548173ffffffffffffffffffffffffffffffffffffffff021916908373ffffffffffffffffffffffffffffffffffffffff16021790555050565b60045f9054906101000a900473ffffffffffffffffffffffffffffffffffffffff1673ffffffffffffffffffffffffffffffffffffffff163373ffffffffffffffffffffffffffffffffffffffff16146108e0576040517f7bfa4b9f00000000000000000000000000000000000000000000000000000000815260040160405180910390fd5b8160035f9054906101000a900473ffffffffffffffffffffffffffffffffffffffff1673ffffffffffffffffffffffffffffffffffffffff166370a08231306040518263ffffffff1660e01b815260040161093b91906110c7565b602060405180830381865afa158015610956573d5f5f3e3d5ffd5b505050506040513d601f19601f8201168201806040525081019061097a91906111e1565b10156109b2576040517ff4d678b800000000000000000000000000000000000000000000000000000000815260040160405180910390fd5b60035f9054906101000a900473ffffffffffffffffffffffffffffffffffffffff1673ffffffffffffffffffffffffffffffffffffffff1663095ea7b360025f9054906101000a900473ffffffffffffffffffffffffffffffffffffffff16846040518363ffffffff1660e01b8152600401610a2f9291906113c7565b6020604051808303815f875af1158015610a4b573d5f5f3e3d5ffd5b505050506040513d601f19601f82011682018060405250810190610a6f9190611402565b5060025f9054906101000a900473ffffffffffffffffffffffffffffffffffffffff1673ffffffffffffffffffffffffffffffffffffffff16636e553f6583306040518363ffffffff1660e01b8152600401610acc92919061142d565b6020604051808303815f875af1158015610ae8573d5f5f3e3d5ffd5b505050506040513d601f19601f82011682018060405250810190610b0c91906111e1565b50815f5f8373ffffffffffffffffffffffffffffffffffffffff1673ffffffffffffffffffffffffffffffffffffffff1681526020019081526020015f205f828254610b589190611454565b925050819055508073ffffffffffffffffffffffffffffffffffffffff167f9e535ce7c368aebc28cdd1bde5aa0a1719dffb5589a936b17ae5f24f2dd452d5835f42604051610ba993929190611392565b60405180910390a25050565b60015f9054906101000a900473ffffffffffffffffffffffffffffffffffffffff1681565b60045f9054906101000a900473ffffffffffffffffffffffffffffffffffffffff1673ffffffffffffffffffffffffffffffffffffffff163373ffffffffffffffffffffffffffffffffffffffff1614610c60576040517f7bfa4b9f00000000000000000000000000000000000000000000000000000000815260040160405180910390fd5b5f4790505f811115610ceb5760035f9054906101000a900473ffffffffffffffffffffffffffffffffffffffff1673ffffffffffffffffffffffffffffffffffffffff1663d0e30db0826040518263ffffffff1660e01b81526004015f604051808303818588803b158015610cd3575f5ffd5b505af1158015610ce5573d5f5f3e3d5ffd5b50505050505b50565b60045f9054906101000a900473ffffffffffffffffffffffffffffffffffffffff1681565b5f5f47915060035f9054906101000a900473ffffffffffffffffffffffffffffffffffffffff1673ffffffffffffffffffffffffffffffffffffffff166370a08231306040518263ffffffff1660e01b8152600401610d7291906110c7565b602060405180830381865afa158015610d8d573d5f5f3e3d5ffd5b505050506040513d601f19601f82011682018060405250810190610db191906111e1565b90509091565b5f604051905090565b5f5ffd5b5f5ffd5b5f73ffffffffffffffffffffffffffffffffffffffff82169050919050565b5f610df182610dc8565b9050919050565b610e0181610de7565b8114610e0b575f5ffd5b50565b5f81359050610e1c81610df8565b92915050565b5f819050919050565b610e3481610e22565b8114610e3e575f5ffd5b50565b5f81359050610e4f81610e2b565b92915050565b5f63ffffffff82169050919050565b610e6d81610e55565b8114610e77575f5ffd5b50565b5f81359050610e8881610e64565b92915050565b5f8115159050919050565b610ea281610e8e565b8114610eac575f5ffd5b50565b5f81359050610ebd81610e99565b92915050565b5f5ffd5b5f5ffd5b5f601f19601f8301169050919050565b7f4e487b71000000000000000000000000000000000000000000000000000000005f52604160045260245ffd5b610f1182610ecb565b810181811067ffffffffffffffff82111715610f3057610f2f610edb565b5b80604052505050565b5f610f42610db7565b9050610f4e8282610f08565b919050565b5f67ffffffffffffffff821115610f6d57610f6c610edb565b5b610f7682610ecb565b9050602081019050919050565b828183375f83830152505050565b5f610fa3610f9e84610f53565b610f39565b905082815260208101848484011115610fbf57610fbe610ec7565b5b610fca848285610f83565b509392505050565b5f82601f830112610fe657610fe5610ec3565b5b8135610ff6848260208601610f91565b91505092915050565b5f5f5f5f5f5f5f60e0888a03121561101a57611019610dc0565b5b5f6110278a828b01610e0e565b97505060206110388a828b01610e41565b96505060406110498a828b01610e7a565b955050606061105a8a828b01610e0e565b945050608061106b8a828b01610e0e565b93505060a061107c8a828b01610eaf565b92505060c088013567ffffffffffffffff81111561109d5761109c610dc4565b5b6110a98a828b01610fd2565b91505092959891949750929550565b6110c181610de7565b82525050565b5f6020820190506110da5f8301846110b8565b92915050565b5f602082840312156110f5576110f4610dc0565b5b5f61110284828501610e0e565b91505092915050565b61111481610e22565b82525050565b5f60208201905061112d5f83018461110b565b92915050565b5f5f6040838503121561114957611148610dc0565b5b5f61115685828601610e41565b925050602061116785828601610e0e565b9150509250929050565b5f6040820190506111845f83018561110b565b611191602083018461110b565b9392505050565b5f6060820190506111ab5f83018661110b565b6111b860208301856110b8565b6111c560408301846110b8565b949350505050565b5f815190506111db81610e2b565b92915050565b5f602082840312156111f6576111f5610dc0565b5b5f611203848285016111cd565b91505092915050565b61121581610e55565b82525050565b61122481610e8e565b82525050565b5f81519050919050565b5f82825260208201905092915050565b8281835e5f83830152505050565b5f61125c8261122a565b6112668185611234565b9350611276818560208601611244565b61127f81610ecb565b840191505092915050565b5f60c08201905061129d5f83018961120c565b6112aa60208301886110b8565b6112b7604083018761110b565b6112c460608301866110b8565b6112d1608083018561121b565b81810360a08301526112e38184611252565b9050979650505050505050565b7f4e487b71000000000000000000000000000000000000000000000000000000005f52601160045260245ffd5b5f61132782610e22565b915061133283610e22565b925082820390508181111561134a576113496112f0565b5b92915050565b5f819050919050565b5f819050919050565b5f61137c61137761137284611350565b611359565b610e22565b9050919050565b61138c81611362565b82525050565b5f6060820190506113a55f83018661110b565b6113b26020830185611383565b6113bf604083018461110b565b949350505050565b5f6040820190506113da5f8301856110b8565b6113e7602083018461110b565b9392505050565b5f815190506113fc81610e99565b92915050565b5f6020828403121561141757611416610dc0565b5b5f611424848285016113ee565b91505092915050565b5f6040820190506114405f83018561110b565b61144d60208301846110b8565b9392505050565b5f61145e82610e22565b915061146983610e22565b9250828201905080821115611481576114806112f0565b5b9291505056fea26469706673582212201731bb6d8b2e63ee710c4976a4aab797b01f562a0241f21129d83077d239702264736f6c634300081d0033",
        "linkReferences": {}
    },
    "methodIdentifiers": {
        "ADMIN_ADDRESS()": "f57ad989",
        "BRIDGE_ADDRESS()": "cf7fdc9d",
        "VAULT_ADDRESS()": "9092c31c",
        "WETH_ADDRESS()": "040141e5",
        "balances(address)": "27e235e3",
        "checkBalance(address)": "5f515226",
        "executeToVault(uint256,address)": "b7637765",
        "getContractBalances()": "ffd2a7d3",
        "requestWithdraw(address,uint256,uint32,address,address,bool,bytes)": "01ee4662",
        "setAdmin(address)": "704b6c02",
        "setVaultAddress(address)": "85535cc5",
        "setWethAddress(address)": "a96e2423",
        "wrapEthToWeth()": "d0e1be78"
    },
    "id": 24
}