{
    "abi": [
        {
            "type": "constructor",
            "inputs": [
                {
                    "name": "_bridgeAddress",
                    "type": "address",
                    "internalType": "address"
                },
                {
                    "name": "_vaultAddress",
                    "type": "address",
                    "internalType": "address"
                },
                {
                    "name": "_wethAddress",
                    "type": "address",
                    "internalType": "address"
                }
            ],
            "stateMutability": "nonpayable"
        },
        {
            "type": "receive",
            "stateMutability": "payable"
        },
        {
            "type": "function",
            "name": "ADMIN_ADDRESS",
            "inputs": [],
            "outputs": [
                {
                    "name": "",
                    "type": "address",
                    "internalType": "address"
                }
            ],
            "stateMutability": "view"
        },
        {
            "type": "function",
            "name": "BRIDGE_ADDRESS",
            "inputs": [],
            "outputs": [
                {
                    "name": "",
                    "type": "address",
                    "internalType": "address"
                }
            ],
            "stateMutability": "view"
        },
        {
            "type": "function",
            "name": "VAULT_ADDRESS",
            "inputs": [],
            "outputs": [
                {
                    "name": "",
                    "type": "address",
                    "internalType": "address"
                }
            ],
            "stateMutability": "view"
        },
        {
            "type": "function",
            "name": "WETH_ADDRESS",
            "inputs": [],
            "outputs": [
                {
                    "name": "",
                    "type": "address",
                    "internalType": "address"
                }
            ],
            "stateMutability": "view"
        },
        {
            "type": "function",
            "name": "balances",
            "inputs": [
                {
                    "name": "",
                    "type": "address",
                    "internalType": "address"
                }
            ],
            "outputs": [
                {
                    "name": "",
                    "type": "uint256",
                    "internalType": "uint256"
                }
            ],
            "stateMutability": "view"
        },
        {
            "type": "function",
            "name": "checkBalance",
            "inputs": [
                {
                    "name": "user",
                    "type": "address",
                    "internalType": "address"
                }
            ],
            "outputs": [
                {
                    "name": "",
                    "type": "uint256",
                    "internalType": "uint256"
                }
            ],
            "stateMutability": "view"
        },
        {
            "type": "function",
            "name": "executeToVault",
            "inputs": [
                {
                    "name": "amount",
                    "type": "uint256",
                    "internalType": "uint256"
                },
                {
                    "name": "user",
                    "type": "address",
                    "internalType": "address"
                }
            ],
            "outputs": [],
            "stateMutability": "nonpayable"
        },
        {
            "type": "function",
            "name": "getContractBalances",
            "inputs": [],
            "outputs": [
                {
                    "name": "ethBalance",
                    "type": "uint256",
                    "internalType": "uint256"
                },
                {
                    "name": "wethBalance",
                    "type": "uint256",
                    "internalType": "uint256"
                }
            ],
            "stateMutability": "view"
        },
        {
            "type": "function",
            "name": "onMessageReceived",
            "inputs": [
                {
                    "name": "originAddress",
                    "type": "address",
                    "internalType": "address"
                },
                {
                    "name": "originNetwork",
                    "type": "uint32",
                    "internalType": "uint32"
                },
                {
                    "name": "data",
                    "type": "bytes",
                    "internalType": "bytes"
                }
            ],
            "outputs": [],
            "stateMutability": "payable"
        },
        {
            "type": "function",
            "name": "requestWithdraw",
            "inputs": [
                {
                    "name": "user",
                    "type": "address",
                    "internalType": "address"
                },
                {
                    "name": "amount",
                    "type": "uint256",
                    "internalType": "uint256"
                },
                {
                    "name": "destinationNetwork",
                    "type": "uint32",
                    "internalType": "uint32"
                },
                {
                    "name": "destinationAddress",
                    "type": "address",
                    "internalType": "address"
                },
                {
                    "name": "token",
                    "type": "address",
                    "internalType": "address"
                },
                {
                    "name": "forceUpdateGlobalExitRoot",
                    "type": "bool",
                    "internalType": "bool"
                },
                {
                    "name": "permitData",
                    "type": "bytes",
                    "internalType": "bytes"
                }
            ],
            "outputs": [],
            "stateMutability": "nonpayable"
        },
        {
            "type": "function",
            "name": "setAdmin",
            "inputs": [
                {
                    "name": "_adminAddress",
                    "type": "address",
                    "internalType": "address"
                }
            ],
            "outputs": [],
            "stateMutability": "nonpayable"
        },
        {
            "type": "function",
            "name": "setVaultAddress",
            "inputs": [
                {
                    "name": "_vaultAddress",
                    "type": "address",
                    "internalType": "address"
                }
            ],
            "outputs": [],
            "stateMutability": "nonpayable"
        },
        {
            "type": "function",
            "name": "setWethAddress",
            "inputs": [
                {
                    "name": "_wethAddress",
                    "type": "address",
                    "internalType": "address"
                }
            ],
            "outputs": [],
            "stateMutability": "nonpayable"
        },
        {
            "type": "function",
            "name": "wrapEthToWeth",
            "inputs": [],
            "outputs": [],
            "stateMutability": "nonpayable"
        },
        {
            "type": "event",
            "name": "Deposited",
            "inputs": [
                {
                    "name": "user",
                    "type": "address",
                    "indexed": true,
                    "internalType": "address"
                },
                {
                    "name": "amount",
                    "type": "uint256",
                    "indexed": false,
                    "internalType": "uint256"
                },
                {
                    "name": "nonce",
                    "type": "uint256",
                    "indexed": false,
                    "internalType": "uint256"
                },
                {
                    "name": "timestamp",
                    "type": "uint256",
                    "indexed": false,
                    "internalType": "uint256"
                }
            ],
            "anonymous": false
        },
        {
            "type": "event",
            "name": "ExecutedToVault",
            "inputs": [
                {
                    "name": "user",
                    "type": "address",
                    "indexed": true,
                    "internalType": "address"
                },
                {
                    "name": "amount",
                    "type": "uint256",
                    "indexed": false,
                    "internalType": "uint256"
                },
                {
                    "name": "nonce",
                    "type": "uint256",
                    "indexed": false,
                    "internalType": "uint256"
                },
                {
                    "name": "timestamp",
                    "type": "uint256",
                    "indexed": false,
                    "internalType": "uint256"
                }
            ],
            "anonymous": false
        },
        {
            "type": "event",
            "name": "RequestWithdraw",
            "inputs": [
                {
                    "name": "user",
                    "type": "address",
                    "indexed": true,
                    "internalType": "address"
                },
                {
                    "name": "amount",
                    "type": "uint256",
                    "indexed": false,
                    "internalType": "uint256"
                },
                {
                    "name": "nonce",
                    "type": "uint256",
                    "indexed": false,
                    "internalType": "uint256"
                },
                {
                    "name": "timestamp",
                    "type": "uint256",
                    "indexed": false,
                    "internalType": "uint256"
                }
            ],
            "anonymous": false
        },
        {
            "type": "error",
            "name": "InsufficientBalance",
            "inputs": []
        },
        {
            "type": "error",
            "name": "NotAdmin",
            "inputs": []
        }
    ],
    "bytecode": {
        "object": "0x608060405234801561000f575f5ffd5b506040516118ce3803806118ce83398181016040528101906100319190610197565b8260015f6101000a81548173ffffffffffffffffffffffffffffffffffffffff021916908373ffffffffffffffffffffffffffffffffffffffff1602179055508160025f6101000a81548173ffffffffffffffffffffffffffffffffffffffff021916908373ffffffffffffffffffffffffffffffffffffffff1602179055508060035f6101000a81548173ffffffffffffffffffffffffffffffffffffffff021916908373ffffffffffffffffffffffffffffffffffffffff1602179055503360045f6101000a81548173ffffffffffffffffffffffffffffffffffffffff021916908373ffffffffffffffffffffffffffffffffffffffff1602179055505050506101e7565b5f5ffd5b5f73ffffffffffffffffffffffffffffffffffffffff82169050919050565b5f6101668261013d565b9050919050565b6101768161015c565b8114610180575f5ffd5b50565b5f815190506101918161016d565b92915050565b5f5f5f606084860312156101ae576101ad610139565b5b5f6101bb86828701610183565b93505060206101cc86828701610183565b92505060406101dd86828701610183565b9150509250925092565b6116da806101f45f395ff3fe6080604052600436106100e0575f3560e01c80639092c31c1161007e578063cf7fdc9d11610058578063cf7fdc9d1461029b578063d0e1be78146102c5578063f57ad989146102db578063ffd2a7d314610305576100e7565b80639092c31c14610221578063a96e24231461024b578063b763776514610273576100e7565b806327e235e3116100ba57806327e235e3146101595780635f51522614610195578063704b6c02146101d157806385535cc5146101f9576100e7565b806301ee4662146100eb578063040141e5146101135780631806b5f21461013d576100e7565b366100e757005b5f5ffd5b3480156100f6575f5ffd5b50610111600480360381019061010c91906111a7565b610330565b005b34801561011e575f5ffd5b50610127610502565b604051610134919061126f565b60405180910390f35b61015760048036038101906101529190611288565b610527565b005b348015610164575f5ffd5b5061017f600480360381019061017a91906112f4565b610729565b60405161018c919061132e565b60405180910390f35b3480156101a0575f5ffd5b506101bb60048036038101906101b691906112f4565b61073d565b6040516101c8919061132e565b60405180910390f35b3480156101dc575f5ffd5b506101f760048036038101906101f291906112f4565b610782565b005b348015610204575f5ffd5b5061021f600480360381019061021a91906112f4565b61084b565b005b34801561022c575f5ffd5b50610235610914565b604051610242919061126f565b60405180910390f35b348015610256575f5ffd5b50610271600480360381019061026c91906112f4565b610939565b005b34801561027e575f5ffd5b5061029960048036038101906102949190611347565b610a02565b005b3480156102a6575f5ffd5b506102af610d5d565b6040516102bc919061126f565b60405180910390f35b3480156102d0575f5ffd5b506102d9610d82565b005b3480156102e6575f5ffd5b506102ef610e96565b6040516102fc919061126f565b60405180910390f35b348015610310575f5ffd5b50610319610ebb565b604051610327929190611385565b60405180910390f35b60045f9054906101000a900473ffffffffffffffffffffffffffffffffffffffff1673ffffffffffffffffffffffffffffffffffffffff163373ffffffffffffffffffffffffffffffffffffffff16146103b6576040517f7bfa4b9f00000000000000000000000000000000000000000000000000000000815260040160405180910390fd5b60025f9054906101000a900473ffffffffffffffffffffffffffffffffffffffff1673ffffffffffffffffffffffffffffffffffffffff1663b460af948733306040518463ffffffff1660e01b8152600401610414939291906113ac565b6020604051808303815f875af1158015610430573d5f5f3e3d5ffd5b505050506040513d601f19601f8201168201806040525081019061045491906113f5565b50855f5f8973ffffffffffffffffffffffffffffffffffffffff1673ffffffffffffffffffffffffffffffffffffffff1681526020019081526020015f205f8282546104a0919061144d565b925050819055508673ffffffffffffffffffffffffffffffffffffffff167f96d07fd2bc9180dce2d22cb77edc26050eeb85876cff9714d58346b2974a8665875f426040516104f1939291906114c2565b60405180910390a250505050505050565b60035f9054906101000a900473ffffffffffffffffffffffffffffffffffffffff1681565b5f8180602001905181019061053c9190611584565b905080602001515f5f835f015173ffffffffffffffffffffffffffffffffffffffff1673ffffffffffffffffffffffffffffffffffffffff1681526020019081526020015f205f82825461059091906115af565b925050819055505f34111561061e5760035f9054906101000a900473ffffffffffffffffffffffffffffffffffffffff1673ffffffffffffffffffffffffffffffffffffffff1663d0e30db0346040518263ffffffff1660e01b81526004015f604051808303818588803b158015610606575f5ffd5b505af1158015610618573d5f5f3e3d5ffd5b50505050505b60025f9054906101000a900473ffffffffffffffffffffffffffffffffffffffff1673ffffffffffffffffffffffffffffffffffffffff16636e553f658260200151835f01516040518363ffffffff1660e01b81526004016106819291906115e2565b6020604051808303815f875af115801561069d573d5f5f3e3d5ffd5b505050506040513d601f19601f820116820180604052508101906106c191906113f5565b50805f015173ffffffffffffffffffffffffffffffffffffffff167f91ede45f04a37a7c170f5c1207df3b6bc748dc1e04ad5e917a241d0f52feada382602001518360400151846060015160405161071b93929190611609565b60405180910390a250505050565b5f602052805f5260405f205f915090505481565b5f5f5f8373ffffffffffffffffffffffffffffffffffffffff1673ffffffffffffffffffffffffffffffffffffffff1681526020019081526020015f20549050919050565b60045f9054906101000a900473ffffffffffffffffffffffffffffffffffffffff1673ffffffffffffffffffffffffffffffffffffffff163373ffffffffffffffffffffffffffffffffffffffff1614610808576040517f7bfa4b9f00000000000000000000000000000000000000000000000000000000815260040160405180910390fd5b8060045f6101000a81548173ffffffffffffffffffffffffffffffffffffffff021916908373ffffffffffffffffffffffffffffffffffffffff16021790555050565b60045f9054906101000a900473ffffffffffffffffffffffffffffffffffffffff1673ffffffffffffffffffffffffffffffffffffffff163373ffffffffffffffffffffffffffffffffffffffff16146108d1576040517f7bfa4b9f00000000000000000000000000000000000000000000000000000000815260040160405180910390fd5b8060025f6101000a81548173ffffffffffffffffffffffffffffffffffffffff021916908373ffffffffffffffffffffffffffffffffffffffff16021790555050565b60025f9054906101000a900473ffffffffffffffffffffffffffffffffffffffff1681565b60045f9054906101000a900473ffffffffffffffffffffffffffffffffffffffff1673ffffffffffffffffffffffffffffffffffffffff163373ffffffffffffffffffffffffffffffffffffffff16146109bf576040517f7bfa4b9f00000000000000000000000000000000000000000000000000000000815260040160405180910390fd5b8060035f6101000a81548173ffffffffffffffffffffffffffffffffffffffff021916908373ffffffffffffffffffffffffffffffffffffffff16021790555050565b60045f9054906101000a900473ffffffffffffffffffffffffffffffffffffffff1673ffffffffffffffffffffffffffffffffffffffff163373ffffffffffffffffffffffffffffffffffffffff1614610a88576040517f7bfa4b9f00000000000000000000000000000000000000000000000000000000815260040160405180910390fd5b8160035f9054906101000a900473ffffffffffffffffffffffffffffffffffffffff1673ffffffffffffffffffffffffffffffffffffffff166370a08231306040518263ffffffff1660e01b8152600401610ae3919061126f565b602060405180830381865afa158015610afe573d5f5f3e3d5ffd5b505050506040513d601f19601f82011682018060405250810190610b2291906113f5565b1015610b5a576040517ff4d678b800000000000000000000000000000000000000000000000000000000815260040160405180910390fd5b60035f9054906101000a900473ffffffffffffffffffffffffffffffffffffffff1673ffffffffffffffffffffffffffffffffffffffff1663095ea7b360025f9054906101000a900473ffffffffffffffffffffffffffffffffffffffff16846040518363ffffffff1660e01b8152600401610bd792919061163e565b6020604051808303815f875af1158015610bf3573d5f5f3e3d5ffd5b505050506040513d601f19601f82011682018060405250810190610c179190611679565b5060025f9054906101000a900473ffffffffffffffffffffffffffffffffffffffff1673ffffffffffffffffffffffffffffffffffffffff16636e553f6583306040518363ffffffff1660e01b8152600401610c749291906115e2565b6020604051808303815f875af1158015610c90573d5f5f3e3d5ffd5b505050506040513d601f19601f82011682018060405250810190610cb491906113f5565b50815f5f8373ffffffffffffffffffffffffffffffffffffffff1673ffffffffffffffffffffffffffffffffffffffff1681526020019081526020015f205f828254610d0091906115af565b925050819055508073ffffffffffffffffffffffffffffffffffffffff167f9e535ce7c368aebc28cdd1bde5aa0a1719dffb5589a936b17ae5f24f2dd452d5835f42604051610d51939291906114c2565b60405180910390a25050565b60015f9054906101000a900473ffffffffffffffffffffffffffffffffffffffff1681565b60045f9054906101000a900473ffffffffffffffffffffffffffffffffffffffff1673ffffffffffffffffffffffffffffffffffffffff163373ffffffffffffffffffffffffffffffffffffffff1614610e08576040517f7bfa4b9f00000000000000000000000000000000000000000000000000000000815260040160405180910390fd5b5f4790505f811115610e935760035f9054906101000a900473ffffffffffffffffffffffffffffffffffffffff1673ffffffffffffffffffffffffffffffffffffffff1663d0e30db0826040518263ffffffff1660e01b81526004015f604051808303818588803b158015610e7b575f5ffd5b505af1158015610e8d573d5f5f3e3d5ffd5b50505050505b50565b60045f9054906101000a900473ffffffffffffffffffffffffffffffffffffffff1681565b5f5f47915060035f9054906101000a900473ffffffffffffffffffffffffffffffffffffffff1673ffffffffffffffffffffffffffffffffffffffff166370a08231306040518263ffffffff1660e01b8152600401610f1a919061126f565b602060405180830381865afa158015610f35573d5f5f3e3d5ffd5b505050506040513d601f19601f82011682018060405250810190610f5991906113f5565b90509091565b5f604051905090565b5f5ffd5b5f5ffd5b5f73ffffffffffffffffffffffffffffffffffffffff82169050919050565b5f610f9982610f70565b9050919050565b610fa981610f8f565b8114610fb3575f5ffd5b50565b5f81359050610fc481610fa0565b92915050565b5f819050919050565b610fdc81610fca565b8114610fe6575f5ffd5b50565b5f81359050610ff781610fd3565b92915050565b5f63ffffffff82169050919050565b61101581610ffd565b811461101f575f5ffd5b50565b5f813590506110308161100c565b92915050565b5f8115159050919050565b61104a81611036565b8114611054575f5ffd5b50565b5f8135905061106581611041565b92915050565b5f5ffd5b5f5ffd5b5f601f19601f8301169050919050565b7f4e487b71000000000000000000000000000000000000000000000000000000005f52604160045260245ffd5b6110b982611073565b810181811067ffffffffffffffff821117156110d8576110d7611083565b5b80604052505050565b5f6110ea610f5f565b90506110f682826110b0565b919050565b5f67ffffffffffffffff82111561111557611114611083565b5b61111e82611073565b9050602081019050919050565b828183375f83830152505050565b5f61114b611146846110fb565b6110e1565b9050828152602081018484840111156111675761116661106f565b5b61117284828561112b565b509392505050565b5f82601f83011261118e5761118d61106b565b5b813561119e848260208601611139565b91505092915050565b5f5f5f5f5f5f5f60e0888a0312156111c2576111c1610f68565b5b5f6111cf8a828b01610fb6565b97505060206111e08a828b01610fe9565b96505060406111f18a828b01611022565b95505060606112028a828b01610fb6565b94505060806112138a828b01610fb6565b93505060a06112248a828b01611057565b92505060c088013567ffffffffffffffff81111561124557611244610f6c565b5b6112518a828b0161117a565b91505092959891949750929550565b61126981610f8f565b82525050565b5f6020820190506112825f830184611260565b92915050565b5f5f5f6060848603121561129f5761129e610f68565b5b5f6112ac86828701610fb6565b93505060206112bd86828701611022565b925050604084013567ffffffffffffffff8111156112de576112dd610f6c565b5b6112ea8682870161117a565b9150509250925092565b5f6020828403121561130957611308610f68565b5b5f61131684828501610fb6565b91505092915050565b61132881610fca565b82525050565b5f6020820190506113415f83018461131f565b92915050565b5f5f6040838503121561135d5761135c610f68565b5b5f61136a85828601610fe9565b925050602061137b85828601610fb6565b9150509250929050565b5f6040820190506113985f83018561131f565b6113a5602083018461131f565b9392505050565b5f6060820190506113bf5f83018661131f565b6113cc6020830185611260565b6113d96040830184611260565b949350505050565b5f815190506113ef81610fd3565b92915050565b5f6020828403121561140a57611409610f68565b5b5f611417848285016113e1565b91505092915050565b7f4e487b71000000000000000000000000000000000000000000000000000000005f52601160045260245ffd5b5f61145782610fca565b915061146283610fca565b925082820390508181111561147a57611479611420565b5b92915050565b5f819050919050565b5f819050919050565b5f6114ac6114a76114a284611480565b611489565b610fca565b9050919050565b6114bc81611492565b82525050565b5f6060820190506114d55f83018661131f565b6114e260208301856114b3565b6114ef604083018461131f565b949350505050565b5f5ffd5b5f8151905061150981610fa0565b92915050565b5f60808284031215611524576115236114f7565b5b61152e60806110e1565b90505f61153d848285016114fb565b5f830152506020611550848285016113e1565b6020830152506040611564848285016113e1565b6040830152506060611578848285016113e1565b60608301525092915050565b5f6080828403121561159957611598610f68565b5b5f6115a68482850161150f565b91505092915050565b5f6115b982610fca565b91506115c483610fca565b92508282019050808211156115dc576115db611420565b5b92915050565b5f6040820190506115f55f83018561131f565b6116026020830184611260565b9392505050565b5f60608201905061161c5f83018661131f565b611629602083018561131f565b611636604083018461131f565b949350505050565b5f6040820190506116515f830185611260565b61165e602083018461131f565b9392505050565b5f8151905061167381611041565b92915050565b5f6020828403121561168e5761168d610f68565b5b5f61169b84828501611665565b9150509291505056fea264697066735822122040dbbe66ca12a0edef8ec4d107986a1f4bec0ef0a3b0256824a278b7e8f980ab64736f6c634300081d0033",
        "linkReferences": {}
    },
    "methodIdentifiers": {
        "ADMIN_ADDRESS()": "f57ad989",
        "BRIDGE_ADDRESS()": "cf7fdc9d",
        "VAULT_ADDRESS()": "9092c31c",
        "WETH_ADDRESS()": "040141e5",
        "balances(address)": "27e235e3",
        "checkBalance(address)": "5f515226",
        "executeToVault(uint256,address)": "b7637765",
        "getContractBalances()": "ffd2a7d3",
        "onMessageReceived(address,uint32,bytes)": "1806b5f2",
        "requestWithdraw(address,uint256,uint32,address,address,bool,bytes)": "01ee4662",
        "setAdmin(address)": "704b6c02",
        "setVaultAddress(address)": "85535cc5",
        "setWethAddress(address)": "a96e2423",
        "wrapEthToWeth()": "d0e1be78"
    },
    "id": 16
}